:100000006F00507C1300000013000000130000007C
:100010001300000013000000130000001300000094
:100020001300000013000000130000001300000084
:08003000130000007300100032
:100038006FF09FFC000000006F0010326F00D03698
:1000480000000000000000000000000000000000A8
:100058000000000000000000000000000000000098
:100068006F60A00F000000006F00000F000000008C
:100078006F0010366FF05FF86F00903A6F00703BBA
:100088006F00503C6F00303D6F0060226F006028A9
:100098006F0060306F0060366F00603C6F00D03CCE
:1000A8006F0090416F0050466F00F0226F00D04AF9
:1000B8006F00904F6F0050546F00205A00000000EE
:1000C8000000000000000000000000006F00603F1A
:1000D8006F00A05D6F00A0646F00606B6F00A0747C
:1000E8006F0070016F0010046F00D00A6FF0DFF02E
:1000F8006FF09FF06FF05FF06FF01FF06FF0DFEFC1
:100108006FF09FEF6F6080286F00D00F6F00B017FF
:100118006F0080476FF05FEE6FF01FEE6FF0DFED5E
:1001280000000000000000000000000000000000C7
:080138000000000000000000BF
:1001400073750430828073100530828097520020CE
:10015000938242EB739002340321050095A00100C5
:10016000197106C212C816CA1ACC1ECE22D026D2C7
:100170002AD42ED632D836DA3ADC3EDEC2C0C6C227
:10018000CAC4CEC6D2C8D6CADACCDECEE2D0E6D257
:10019000EAD4EED6F2D8F6DAFADCFEDEF32200304C
:1001A00016C483A2418B23A02200F322103416C070
:1001B000EF40507B83A2818B03A1020011A00100BC
:1001C000824273901234A2427390023092404242B3
:1001D000D2426243F243025492542255B2554256DF
:1001E000D2566257F257064896482649B649464ABB
:1001F000D64A664BF64B065C965C265DB65D465E5F
:10020000D65E665FF65F09617300203000003D43F3
:100210002A876373C3029377F700BDEFADE593764A
:1002200006FF3D8ABA960CC34CC30CC74CC74107A6
:10023000E36BD7FE11E28280B306C3408A069702C1
:10024000000096966780A6002307B700A306B700B4
:100250002306B700A305B7002305B700A304B70022
:100260002304B700A303B7002303B700A302B7001A
:100270002302B700A301B7002301B700A300B70012
:100280002300B700828093F5F50F93968500D58DF6
:1002900093960501D58D61B79396270097020000CC
:1002A00096968682E78086FA9680C1171D8F3E96C5
:1002B000E374C3F8A5B7397106DE16DC1ADA1ED866
:1002C0002AD62ED432D236D03ACE3ECC42CA46C8F6
:1002D00072C676C47AC27EC0EF30B01D0545EF10FD
:1002E000C00D85476307F502EF30F01EF250E25271
:1002F0005253C2533255A255125682567247E247A4
:100300005248C248324EA24E124F824F21617300B2
:1003100020300545EF10200CC1BF397106DE16DC18
:100320001ADA1ED82AD62ED432D236D03ACE3ECCC5
:1003300042CA46C872C676C47AC27EC0EF30701711
:100340000945EF10800785476307F502EF30B018C5
:10035000F250E2525253C2533255A25512568256AF
:100360007247E2475248C248324EA24E124F824F65
:10037000216173002030B707002083A7C710094709
:100380006389E70005476389E7000945EF10A0048A
:1003900075BFEF20E02CD5BFEF20801DFDB7397170
:1003A00006DE16DC1ADA1ED82AD62ED432D236D081
:1003B0003ACE3ECC42CA46C872C676C47AC27EC025
:1003C000EF30300F1145EF00507F85476307F5028E
:1003D000EF307010F250E2525253C2533255A255D0
:1003E000125682567247E2475248C248324EA24ED7
:1003F000124F824F2161730020301145EF00B07D14
:10040000C1BF397106DE16DC1ADA1ED82AD62ED400
:1004100032D236D03ACE3ECC42CA46C872C676C434
:100420007AC27EC0EF30F0082145EF001079854791
:100430006307F502EF30300AF250E2525253C253D2
:100440003255A255125682567247E2475248C24868
:10045000324EA24E124F824F21617300203021454F
:10046000EF007077C1BF397106DE16DC1ADA1ED8CC
:100470002AD62ED432D236D03ACE3ECC42CA46C844
:1004800072C676C47AC27EC0EF30B0024145EF003A
:10049000D07285476307F502EF30F003F250E25265
:1004A0005253C2533255A255125682567247E247F2
:1004B0005248C248324EA24E124F824F2161730001
:1004C00020304145EF003071C1BF397106DE16DCC6
:1004D0001ADA1ED82AD62ED432D236D03ACE3ECC14
:1004E00042CA46C872C676C47AC27EC0EF30607C0B
:1004F00013050020EF00706C85476303F5041305B6
:100500000010EF00906B85476305F50613050008A2
:10051000EF00B06A85476303F50613050004EF009A
:10052000D06985476301F50613050002EF00F06806
:100530008547631BF50013050002EF00D06929A071
:1005400013050020EF003069EF30E078F250E252FE
:100550005253C2533255A255125682567247E24741
:100560005248C248324EA24E124F824F2161730050
:10057000203013050010EF001066F9B713050008CE
:10058000EF007065D1B713050004EF00D0646DBFB4
:10059000397106DE16DC1ADA1ED82AD62ED432D2EB
:1005A00036D03ACE3ECC42CA46C872C676C47AC26B
:1005B0007EC0EF3000702165EF0030608547630832
:1005C000F5041165EF00705F8547630AF50609655C
:1005D000EF00B05E85476308F5060565EF00F05D46
:1005E00085476306F506056513050580EF00F05C99
:1005F00085476302F50613050040EF00105C854750
:10060000631AF50013050040EF00F05C21A021659E
:10061000EF00705CEF30206CF250E2525253C25344
:100620003255A255125682567247E2475248C24886
:10063000324EA24E124F824F21617300203011655D
:10064000EF007059C1BF0965EF00F058E1B70565CB
:10065000EF007058C1B7056513050580EF00B0576E
:1006600055BF397106DE16DC1ADA1ED82AD62ED40A
:1006700032D236D03ACE3ECC42CA46C872C676C4D2
:100680007AC27EC0EF30E062EF30E064F250E252B6
:100690005253C2533255A255125682567247E24700
:1006A0005248C248324EA24E124F824F216173000F
:1006B0002030397106DE16DC1ADA1ED82AD62ED47E
:1006C00032D236D03ACE3ECC42CA46C872C676C482
:1006D0007AC27EC0EF30E05D9305000837350140F7
:1006E000130505C0EF10005D15E5EF30C05EF25058
:1006F000E2525253C2533255A25512568256724795
:10070000E2475248C248324EA24E124F824F2161F8
:10071000730020309305000837350140130505C0EC
:10072000EF10005BD9B7397106DE16DC1ADA1ED875
:100730002AD62ED432D236D03ACE3ECC42CA46C881
:1007400072C676C47AC27EC0EF30A0568545373572
:100750000140130505C0EF10E05515E5EF30A05737
:10076000F250E2525253C2533255A255125682569B
:100770007247E2475248C248324EA24E124F824F51
:10078000216173002030854537350140130505C0D0
:10079000EF100054E1B7397106DE16DC1ADA1ED804
:1007A0002AD62ED432D236D03ACE3ECC42CA46C811
:1007B00072C676C47AC27EC0EF30A04F93050004A3
:1007C00037350140130505C0EF10C04E1DED9305F0
:1007D000000237350140130505C0EF10A04D1DED97
:1007E000EF30604FF250E2525253C2533255A2558D
:1007F000125682567247E2475248C248324EA24EC3
:10080000124F824F21617300203093050004373569
:100810000140130505C0EF10A04B55BF9305000222
:1008200037350140130505C0EF10804A55BF3971B7
:1008300006DE16DC1ADA1ED82AD62ED432D236D0EC
:100840003ACE3ECC42CA46C872C676C47AC27EC090
:10085000EF302046894537350140130505C0EF10BC
:10086000604531ED914537350140130505C0EF1066
:10087000604431EDA14537350140130505C0EF1047
:10088000604331EDC14537350140130505C0EF1018
:10089000604231EDEF302044F250E2525253C253E5
:1008A0003255A255125682567247E2475248C24804
:1008B000324EA24E124F824F216173002030894583
:1008C00037350140130505C0EF10804061BF9145E9
:1008D00037350140130505C0EF10803F61BFA145CA
:1008E00037350140130505C0EF10803E61BFC1459B
:1008F00037350140130505C0EF10803D61BF411140
:1009000006C6EF30003B854537050040EF10803AC2
:1009100011E5EF30403CB24041018280854537050A
:100920000040EF10E03AEF107048E5B7397106DE8D
:1009300016DC1ADA1ED82AD62ED432D236D03ACEC7
:100940003ECC42CA46C872C676C47AC27EC0EF3078
:10095000403685453705004013050540EF108035CA
:1009600015E5EF304037F250E2525253C253325540
:10097000A255125682567247E2475248C248324E3A
:10098000A24E124F824F21617300203085453705FA
:10099000004013050540EF10A033E1B7397106DEC2
:1009A00016DC1ADA1ED82AD62ED432D236D03ACE57
:1009B0003ECC42CA46C872C676C47AC27EC0EF3008
:1009C000402F85453715004013050580EF10802E18
:1009D00015E5EF304030F250E2525253C2533255D7
:1009E000A255125682567247E2475248C248324ECA
:1009F000A24E124F824F216173002030854537157A
:100A0000004013050580EF10A02CE1B7397106DE18
:100A100016DC1ADA1ED82AD62ED432D236D03ACEE6
:100A20003ECC42CA46C872C676C47AC27EC0EF3097
:100A30004028930550523745004013050540EF10FC
:100A4000A04019C9B707002083A7C7100947638AC8
:100A5000E7020547638AE702EF30E027F250E252EF
:100A60005253C2533255A255125682567247E2472C
:100A70005248C248324EA24E124F824F216173003B
:100A80002030EF107038C9BFEF103008F1B739715E
:100A900006DE16DC1ADA1ED82AD62ED432D236D08A
:100AA0003ACE3ECC42CA46C872C676C47AC27EC02E
:100AB000EF302020EF302022F250E2525253C25346
:100AC0003255A255125682567247E2475248C248E2
:100AD000324EA24E124F824F216173002030397185
:100AE00006DE16DC1ADA1ED82AD62ED432D236D03A
:100AF0003ACE3ECC42CA46C872C676C47AC27EC0DE
:100B0000EF30201B0965EF00807D85476307F50204
:100B1000EF30601CF250E2525253C2533255A2558C
:100B2000125682567247E2475248C248324EA24E8F
:100B3000124F824F2161730020300965EF00207C45
:100B4000B707002083A7C71009476388E700054758
:100B5000E390E7FCEF10302365BFEF10D0314DBFBD
:100B6000397106DE16DC1ADA1ED82AD62ED432D215
:100B700036D03ACE3ECC42CA46C872C676C47AC295
:100B80007EC0EF300013EF300015F250E2525253A6
:100B9000C2533255A255125682567247E247524806
:100BA000C248324EA24E124F824F21617300203054
:100BB000397106DE16DC1ADA1ED82AD62ED432D2C5
:100BC00036D03ACE3ECC42CA46C872C676C47AC245
:100BD0007EC0EF30000E01A0397106DE16DC1ADA95
:100BE0001ED82AD62ED432D236D03ACE3ECC42CAE5
:100BF00046C872C676C47AC27EC0EF30800BEF3032
:100C0000800DF250E2525253C2533255A255125641
:100C100082567247E2475248C248324EA24E124FA5
:100C2000824F216173002030411106C6EF30600809
:100C3000EF30600AB24041018280411106C6EF30B8
:100C40004007EF304009B24041018280411106C6A1
:100C5000EF302006EF302008B24041018280411180
:100C600006C6EF300005EF300007B2404101828038
:100C7000397106DE16DC1ADA1ED82AD62ED432D204
:100C800036D03ACE3ECC42CA46C872C676C47AC284
:100C90007EC0EF300002EF300004F250E2525253B7
:100CA000C2533255A255125682567247E2475248F5
:100CB000C248324EA24E124F824F21617300203043
:100CC000397106DE16DC1ADA1ED82AD62ED432D2B4
:100CD00036D03ACE3ECC42CA46C872C676C47AC234
:100CE0007EC0EF20107DEF20107FF250E252525371
:100CF000C2533255A255125682567247E2475248A5
:100D0000C248324EA24E124F824F216173002030F2
:100D1000397106DE16DC1ADA1ED82AD62ED432D263
:100D200036D03ACE3ECC42CA46C872C676C47AC2E3
:100D30007EC0EF201078EF20107AF250E25252532A
:100D4000C2533255A255125682567247E247524854
:100D5000C248324EA24E124F824F216173002030A2
:100D6000397106DE16DC1ADA1ED82AD62ED432D213
:100D700036D03ACE3ECC42CA46C872C676C47AC293
:100D80007EC0EF201073EF201075F250E2525253E4
:100D9000C2533255A255125682567247E247524804
:100DA000C248324EA24E124F824F21617300203052
:100DB000397106DE16DC1ADA1ED82AD62ED432D2C3
:100DC00036D03ACE3ECC42CA46C872C676C47AC243
:100DD0007EC0EF20106EEF201070F250E25252539E
:100DE000C2533255A255125682567247E2475248B4
:100DF000C248324EA24E124F824F21617300203002
:100E0000397106DE16DC1ADA1ED82AD62ED432D272
:100E100036D03ACE3ECC42CA46C872C676C47AC2F2
:100E20007EC0EF201069EF20106BF250E252525357
:100E3000C2533255A255125682567247E247524863
:100E4000C248324EA24E124F824F216173002030B1
:100E5000797106D622D426D24AD04ECE52CC56CA6A
:100E60005AC85EC662C40146814537A50000130515
:100E70004545EF20301223A0A184EF100068EF1049
:100E8000203DEF501050EF509002EF500076EF6091
:100E9000C03FEF50D05AEF50B05EEF60006C456439
:100EA00013041417930BC012930AA003930970F84C
:100EB000375900209304C9DA2396719323A25193E2
:100EC00023923195EF501065D4449044CC400325D3
:100ED000C9DAEF60C0257D1465F01307C0122396B0
:100EE000E1921307A00323A2E1921307B00223A407
:100EF000E192130720122397E19237A700000327FE
:100F0000074523A8E192130AC0F4894995A8FD5525
:100F100003A50184EF20100B83C7C19089C7294521
:100F2000EF30D06FBDA03705002013058526EF50A8
:100F3000207D37550020130545D4EF50903723927C
:100F4000A194F1BF1305C00DEF30506D2392419570
:100F500013058016EF30906CA38F318F1DA8239658
:100F60000192239701922392019481460146814583
:100F70000145EF60C01B31A89307C0172396F1927B
:100F800083C7F18FC9D70547E38EE7FA0947E3889E
:100F9000E7FC03C7A18F8947E300F7FE83D741949D
:100FA0009387C703C207C183130780076377F700DE
:100FB0009307C0122396F192E1B79307C0122396CC
:100FC000F1927DBF97010020938141941741002049
:100FD0001301410317A500001305451197F5FF1FE5
:100FE000938545021386018463FAC50083220500B8
:100FF00023A0550011059105E3EAC5FE1385018480
:1010000097450020938505DC6377B5002320050014
:101010001105E36DB5FE9302800873A0023097F2CC
:10102000FFFF9382A20193E2120073905230EF50BF
:10103000003E01458145EF204062972200009382E7
:1010400002627390123473002030A54763F7B7042F
:101050008328C500138865FF1317180042979D4722
:10106000B397E70093C7F7FFB3F71701B396E6000E
:10107000DD8E54C5994763E3C70458597D1693170D
:1010800026003E96FD47B397C70093C7F7FFF98F39
:101090003396C5005D8E50D98280032805011397D1
:1010A00015002E979D47B397E70093C7F7FFB3F757
:1010B0000701B396E600DD8E14C96DBFB14763E347
:1010C000C7021459130796FF131627003A96FD47D7
:1010D000B397C70093C7F7FFF58F3396C5005D8EB2
:1010E00010D9828054554D16131726003A96FD47A5
:1010F000B397C70093C7F7FFF58FB395C500DD8D94
:101100004CD582801C4141677917F98F1CC123207F
:101110000500232205002324050023260500B70728
:101120000240A1076304F508B7070240F107630610
:10113000F508B7070240938707036307F508B70769
:10114000024093874704630AF508B7070240938774
:101150008705630BF508B70702409387C706630D41
:10116000F508B707024093870708630FF508B7072C
:101170000240938787406301F50AB70702409387CF
:10118000C7416304F50AB707024093870743630723
:10119000F50AB707024093874744630CF50AB7077F
:1011A000024093878745630FF50A82803707024024
:1011B0005C4393E7F7005CC38280370702405C43DF
:1011C00093E7070F5CC38280B7060240DC420567E5
:1011D000130707F0D98FDCC28280370702405C43D7
:1011E000BD66D58F5CC38280370702405C43B7067B
:1011F0000F00D58F5CC38280370702405C43B7067F
:10120000F000D58F5CC38280370702405C43B7068D
:10121000000FD58F5CC38280B707024003A7474009
:101220001367F70023A2E7408280B707024003A7B5
:1012300047401367070F23A2E7408280B7070240A9
:1012400003A747408566938606F0558F23A2E740A3
:101250008280B707024003A74740BD66558F23A28F
:10126000E7408280B707024003A74740B7060F0058
:10127000558F23A2E74015BF1C4161773D077D8F45
:101280009C459451D58F9449D58FD449D58F944D91
:10129000D58FD44DD58FD451D58F9455D58FD98F27
:1012A0001CC1DC455CC19C411CC5DC415CC5828025
:1012B00091C51C4193E717001CC182801C41416706
:1012C0007917F98F1CC1828009C61C41DD8D0CC1C4
:1012D00082801C4193C5F5FFFD8D0CC18280931760
:1012E000350063DA0700B707024083A707407D8D0A
:1012F0003335A0008280B70702409C43CDBF9317CF
:10130000350063D70700B707024023A2A7408280B9
:10131000B7070240C8C382805C45D9C3B706014005
:101320009387064003A6064018411347F7FF718FC5
:1013300023A0E64083A6464018411347F7FF758F68
:10134000D8C358413E9714431041D18E14C39447DB
:1013500018411347F7FF758F98C7D44718411347B3
:10136000F7FF758FD8C71C454147638CE7003707E7
:10137000014013070740BA9798431441558F98C30B
:101380008280B707014003A787401441558F23A4EB
:10139000E74003A7C7401441558F23A6E74082804A
:1013A0005841B7070140938707403E9714431C41BB
:1013B00093C7F7FFF58F1CC382803707014083274F
:1013C000074003274741698F09C77D8D3335A0004A
:1013D000828001458280B707014023AAA74082800E
:1013E0009C4593F8F700C18B81C7DC41B3E8F80056
:1013F00083C70500A9CB10418147054E3D4F930E91
:101400008002930F8004214329A054C98507638B70
:101410006702B316FE0003D70500758FE398E6FE5A
:10142000139727003318EF001348F8FF3376C800EE
:101430003397E800598E9845E309D7FDE318F7FD87
:1014400014C9E9B710C103D705009307F00F63FD76
:10145000E7045041A147054EBD4F130F8002930E84
:101460008004414331A054C915A88507638D6702E4
:10147000B316FE0003D70500758FE398E6FE1397B9
:10148000270001173398EF001348F8FF3376C800A0
:101490003397E800598E9845E307E7FD9845E31632
:1014A000D7FD14C9D9B750C1828019C20CC9828036
:1014B0004CC982802A8663400504B7070140DC439B
:1014C00093160501C182370730003378E5006308C1
:1014D000E8021317B500635C07041357050113787E
:1014E000F7000D47331707011347F7FF7D8FB70745
:1014F000000FD98F0DA0B7070140DC4FD1B73707D8
:1015000000F17D17F98FB708014003A84800337731
:10151000E80023A2E80091C5558112053395A60085
:10152000C98F63420602370701405CC382801357AC
:10153000550112073397E6001347F7FF7D8FB70772
:10154000000FD98FC9BF370701405CCF828093F766
:1015500035008A0713F7C50FB7050140BA959445C2
:101560003D473317F7001347F7FF758F98C5984528
:101570003315F500598D88C58280B7E700E0BC4778
:10158000898B95CF8346050083472500920793F703
:10159000F70F37E700E036972300F7405C41B5C707
:1015A00003470500935757008546B396E600938797
:1015B00007048A0737E700E0BA9794C38280B7E749
:1015C00000E0BC47898BF9FB034715008547630F93
:1015D000F7008346050083472500920793F7F70F2E
:1015E00037E700E036972300F7404DBF83460500FC
:1015F00083472500920793E707F893F7F70F37E73C
:1016000000E036972300F74051BF0347050093578A
:1016100057008546B396E600938707068A0737E7A3
:1016200000E0BA9794C38280B7170240DC43B18BC5
:1016300011476384E70821476387E70899C7B7170D
:101640007A00938707201CC131A0B7177A009387CF
:1016500007201CC1371602405C429183BD8B3707BF
:10166000002013070700BA9783C607001C41B3D7B1
:10167000D7005CC15442A1829D8ABA9683C60600F7
:10168000B3D6D70014C55442AD829D8A369703471E
:101690000700B3D7E7005CC558423983937637001B
:1016A0003707002013078710369703470700137783
:1016B000F70FB3D7E7021CC98280B7177A00938768
:1016C00007201CC141BF371702405C435843C98300
:1016D000BD8B89079316F70063CA060037173D00D4
:1016E00013070790B387E7021CC1ADB73717024055
:1016F00058439316E70063DA060037173D001307D7
:101700000790B387E7021CC1B1B737177A001307F8
:101710000720B387E7021CC135BF99C537170240C0
:101720005C4B5D8D48CB8280B7170240D84B134588
:10173000F5FF798DC8CB828099C5371702401C4FC1
:101740005D8D08CF8280B7170240984F1345F5FF93
:10175000798D88CF828099C5371702405C4F5D8DA7
:1017600048CF8280B7170240D84F1345F5FF798DD7
:10177000C8CF8280035705008D67938707047D8F4C
:1017800083D7050083D62500D58F83D64500D58F16
:1017900083D66500D58F83D68500D58F83D6A500E7
:1017A000D58F83D6C500D58F83D6E500D58FD98F49
:1017B0002310F5000357C501FD779387F77FF98F55
:1017C000231EF50083D705012318F500828081C907
:1017D0008357050093E707042310F50082808357A1
:1017E0000500C207C18393F7F7FBC207C18323102B
:1017F000F500828083570500C207C1833737014057
:10180000130707C06300E504370700406307E506D8
:10181000130707406303E5063717004013070780E7
:10182000630DE50493F7F7CF03D76500D98F231035
:10183000F50083D745002316F50283D7050023144E
:10184000F50285A093F7F7F803D72500D98F93F712
:10185000F7CF03D76500D98F2310F50083D7450054
:101860002316F50283D705002314F50203C785006C
:10187000B73701402398E7C22DA093F7F7F803D7B5
:101880002500D98F93F7F7CF03D76500D98F2310A1
:10189000F50083D745002316F50283D705002314EE
:1018A000F5028547231AF500828083570502C20797
:1018B000C183F99BC207C1832310F5028357050238
:1018C000C207C18383564500C206C1820357850102
:1018D000420741831377C7F803D60500518FF59B64
:1018E00003D6850003D8250033660601D18F37362D
:1018F0000140130606C0630DC5002312D500231C4A
:10190000E50003D76500231AE5022310F502828063
:10191000DD9B03D6A500D18FED9B03D64500D18F6B
:1019200093F6F6CF03D6C50003D8E500336606016B
:10193000D18EE1B783570502C207C183BD9BC207A1
:10194000C1832310F50283570502C207C1830356E2
:101950004500420641828356850165771307F7CF1C
:10196000758F83D60500A206558F4207418393F7F2
:10197000F7FD03D8850083D62500B3E6060192065D
:10198000D58FC207C183B7360140938606C0630D69
:10199000D5002312C500231CE50003D76500231CD6
:1019A000E5022310F502828093F7F7F783D6A500AE
:1019B0009206D58FC207C18393F7F7FB83D6450004
:1019C0009206D58FC207C183FD769386F63F758E4A
:1019D00003D8C50083D6E500B3E606018A06558E16
:1019E000420641827DB783570502C207C18393F740
:1019F000F7EFC207C1832310F50283570502C20720
:101A0000C18303564500420641820357C501420780
:101A100041831377C7F883D60500558F93F7F7DF17
:101A200003D8850083D62500B3E60601A206D58F2C
:101A3000C207C183B7360140938606C0630DD50047
:101A40002312C500231EE50003D76500231EE5020F
:101A50002310F5028280FD769386F67FF58F83D67C
:101A6000A500A206D58FC207C18393F7F7BF83D61F
:101A70004500A206D58FC207C183F576FD16758E87
:101A800003D8C50083D6E500B3E606019206558E5D
:101A90004206418275B703570502FD77FD17F98F9E
:101AA0002310F50203580502035645004206418201
:101AB0008357C50165771307F7CF7D8F83D6050060
:101AC000A206558F42074183F977FD17B3F7070147
:101AD00003D8850083D62500B3E60601B206D58F6C
:101AE000C207C183B7360140938606C0630DD50097
:101AF0002312C500231EE50003D765002310E5046B
:101B00002310F5028280F176FD16758E83D6C5000E
:101B10009A06558E42064182E1BF81C9835705006E
:101B200093E717002310F500828083570500C20752
:101B3000C183F99BC207C1832310F500828081C94C
:101B4000835745042167D98F2312F5048280835778
:101B50004504C607C5832312F504828019C683573E
:101B6000C500DD8D2316B50082808357C50093C55F
:101B7000F5FFFD8D2316B50082808357850093F70E
:101B8000F70FA2064D8ED18ED58FC207C1832314C5
:101B9000F5008280411106C622C42A84F93F83578A
:101BA000840093E777072314F400B24022444101F4
:101BB000828083578500C207C18393F7F7F8DD8DD4
:101BC0002314B500828083578501C207C183DD9B42
:101BD000DD8D231CB500828003578501FD77938737
:101BE000F77FF98FA205CD8FC207C183231CF500B3
:101BF00082808357C501C207C183DD9BDD8D231E13
:101C0000B50082800357C501FD779387F77FF98F71
:101C1000A205CD8FC207C183231EF50082808357A2
:101C20008501C207C183ED9BDD8D231CB500828039
:101C300083578501C207C18393F7F7BFA205CD8FF4
:101C4000C207C183231CF50082808357C501C207E8
:101C5000C183ED9BDD8D231EB50082808357C501B6
:101C6000C207C18393F7F7BFA205CD8FC207C18317
:101C7000231EF500828083578500C207C183E19B44
:101C8000C207C1832314F50083578500DD8D23141B
:101C9000B500828083578500C207C18393F7F7F7A9
:101CA000C207C1832314F50083578500DD8D2314FB
:101CB000B5008280835705010355C5004205418167
:101CC000ED8F89C76D8D3335A000828001458280FC
:101CD00093C5F5FFC205C1812318B50082807971D3
:101CE00006D622D426D22A84AE8403570501F5777E
:101CF000FD17F98F03D76500D98F2318F500035717
:101D0000C500FD779387379FF98F03D74500D98F9B
:101D100003D78500D98F03D7A500D98F2316F500E7
:101D200083574501C207C18393F7F7CF03D7C50097
:101D3000D98F231AF5006800EFF01F8FB7470140D5
:101D4000938707806301F40652478357C400C20794
:101D5000C18763CC070493171700BA978E07BA9709
:101D600098400A07B3D7E70213074006B3D6E70245
:101D70009206B3F7E7020357C40042074187634066
:101D8000070492079387270313074006B3D7E70298
:101D9000BD8BD58FC207C1832314F400B2502254E7
:101DA00092544561828062474DB793171700BA97E6
:101DB0008E07BA9798400607B3D7E70275B713970F
:101DC000370013072703930740063357F7021D8B8D
:101DD000B367D700C1B781C98357C5000967D98FD9
:101DE0002316F50082800357C500F977FD17F98F98
:101DF0002316F500828093F7F50F95830547B315F9
:101E0000B700638CE700894613074501638AD70052
:101E100019CA1C43DD8D0CC382801307C500CDBFDA
:101E200013070501F5B71C4393C5F5FFFD8D0CC3E2
:101E3000828093F5F51F2312B500828003550500BB
:101E40006D8D3335A000828093F7F50F958385461D
:101E50003397B6006388D70289466389D7028357D0
:101E600045017D8F0355050093170501C183014589
:101E700009CBA1810545B315B50033F5B70033355E
:101E8000A00082808357C5007D8FE9BF835705017D
:101E90007D8FC9BF011106CEA307A1008546130699
:101EA000F100B2850545EF10203A0345F100F240FC
:101EB00005618280011106CE22CC26CA4AC84EC6D0
:101EC000AE8493573600F18B29671307C745BA973D
:101ED00003A9070005443314C40042044180232AA7
:101EE0008900136505087D3726856D37232889000D
:101EF0000545EF100039232A89000145613FAA8971
:101F00000145493F23288900338534413335A000FA
:101F1000F2406244D2444249B24905618280411193
:101F200006C622C426C2AE840564098C42044180E0
:101F30001204420441802E869375040F01459D3F93
:101F40002686935584000545B537B2402244924415
:101F500041018280411106C622C426C24AC093575D
:101F60003500F18B29671307C745BA9703A9070006
:101F700005443314A40042044180232A890001450A
:101F8000113F9384418422052390A4000145193711
:101F900083D70400C98FC207C1832328890099838E
:101FA0002390F4001387C184035507001D8D13751A
:101FB000F53F2310F7009317150093F707401D8D89
:101FC0000E05B240224492440249410182804111EF
:101FD00006C622C426C24AC093573500F18B296732
:101FE0001307C745BA9703A9070005443314A40093
:101FF00042044180232A89000145693D938461841C
:1020000022052390A4000145713583D70400C98FB0
:10201000C207C1832328890099832390F400138782
:10202000E184035507001D8D1375F53F2310F7005C
:102030009317150093F707401D8D0E05B2402244FB
:102040009244024941018280411106C622C426C23F
:102050004AC093573500F18B29671307C745BA97D4
:1020600003A9070005443314A40042044180232A35
:102070008900014505359384818422052390A400BD
:102080000145093D83D70400C98FC207C1832328B6
:10209000890099832390F400138701850355070075
:1020A0001D8D1375F53F2310F7009317150093F757
:1020B00007401D8D0E05B240224492440249410161
:1020C0008280411106C622C426C24AC093573500F9
:1020D000F18B29671307C745BA9703A90700054481
:1020E0003314A40042044180232A890001455D3352
:1020F0009384A18422052390A4000145613B83D7EA
:102100000400C98FC207C1832328890099832390C3
:10211000F40013872185035507001D8D1375F53FC6
:102120002310F7009317150093F707401D8D0E0538
:10213000B24022449244024941018280411106C6C4
:1021400022C42A84094881472A879306200213065D
:102150001002930500020545EF00707F228681453D
:102160002545893BA28501455D3BB24022444101A2
:102170008280011106CE22CC26CAA96783A4C74556
:10218000056413040480C0C82306A100A306B1009F
:1021900089467000B2850545EF10000B80C8F240FB
:1021A0006244D24405618280011106CE22CC26CA47
:1021B0004AC82E89A96783A4C7450564130404800F
:1021C000C0C8136505F82306A10083C70500A30650
:1021D000F10089467000B2850545EF10E00683479F
:1021E000D1002300F90080C8F2406244D244424941
:1021F00005618280411106C622C426C2A96783A454
:10220000C745056413040480C0C8AE862A86AA8523
:102210000545EF10600380C8B2402244924441015A
:102220008280011106CE22CCA30701004944930508
:10223000F100130550078D3F15458145EF1000054E
:102240008347F100E39587FEF24062440561828096
:10225000011106CE22CCA307010029458145EF10CC
:10226000E002094881472D47930620021306100219
:10227000930500020545EF00906D65379305000852
:102280001305B006FD3509458145EF102000130404
:1022900010049305F1001305B0063937294581452F
:1022A000EF00D07E8347F100E39587FE8545130557
:1022B000B006C13581451305C006653D85456945B4
:1022C0004D3D9D4565457535E1456D455D35C145DE
:1022D000714545358D457545693DF240624405615E
:1022E0008280011106CE930730FC2304F1009D4546
:1022F000280009378347D100A2070347E100D98F9F
:10230000239AF184F24005618280411106C622C4FD
:102310001384B1858345040093878185BE95054567
:10232000EF10401B83470400850793F7F70F230046
:10233000F4000547638EE7000D476397E700A38D20
:1023400001840547238EE184B2402244410182800A
:1023500003C781859307500AE308F7FEA38D018424
:10236000E5B7797106D622D426D24AD04ECEAA89B4
:10237000238E01842E8493844502130950FA230688
:10238000210183570400A306F100031724009317CB
:102390000701C183A1832307F100A307E1001146D0
:1023A0006C004E85EF10400A09458145EF00106E24
:1023B0001104E31694FC9387C18583C7070093F744
:1023C000F70FF5DB238E01849387818503C7170000
:1023D00083C627009307F00F6310F700E39EF6FE15
:1023E000B250225492540259F249456182803971A7
:1023F00006DE22DC26DA4AD84ED652D456D25AD03D
:102400005ECEAA8BAE84138B0502930A50FA455A0E
:102410001389818523065101A3064101A6890397EB
:10242000040093170701C183A1832307F100A307C9
:10243000E10011466C005E85EF1000019387C185B5
:1024400083C7070093F7F70FF5DB9387C1852380D8
:10245000070083471900A20703472900D98F23915A
:10246000F9009104E39864FBF2506254D25442594B
:10247000B259225A925A025BF24B21618280411179
:1024800006C613068004B145054569238546014605
:1024900085455D45CD23B24041018280411106C68C
:1024A000B14501451D2EB24041018280411106C651
:1024B00022C426C21304700493040004914601460A
:1024C00081452285CD267D14E31A94FE8966938684
:1024D000864B03A68186B7150140A105370502404A
:1024E00013054504ED2A854601468145794561235A
:1024F000B2402244924441018280411106C622C466
:1025000026C2B7070020054723A6E710B70700201B
:102510009387872623A4F186C5464146896593851E
:1025200005580545EF00D06385450545EF00D0749B
:102530001384C18523000400B7040020938504019F
:102540000545753523000400B70500209385050374
:102550000545013D23000400938504010545413DE7
:10256000B1372D3F293FB24022449244410182803D
:10257000B707024009671307874BB8C7F8431367CB
:102580001700F8C38280411106C60547238BE184FA
:10259000B7060240FC4241677917F98FFCC203A5D8
:1025A0000184EF10C030B24041018280011106CE9B
:1025B00022CC26CA4AC84EC6A96783A447461147FB
:1025C00098C8A147DCC8D8C89CC898C8DCC83724BC
:1025D00000201304047293090410114923AA240152
:1025E0008145294565202310A40023A8240109045E
:1025F000E31634FF0547A38EE184F2406244D244DF
:102600004249B24905618280411106C622C4138441
:1026100041868345040093870186BE950545EF00FA
:10262000706B83470400850793F7F70F2300F400CE
:102630000547638EE7000D476397E7002382018615
:102640000547A381E186B24022444101828003C74D
:1026500001869307500AE308F7FE23820186E5B757
:10266000B7070240056713070796B8C7F843136713
:102670001700F8C382800547238FE184B706024024
:10268000FC4241677917F98FFCC28280411106C66E
:1026900022C426C2AE84814605469375F50F3724C1
:1026A000014013050440EFE05F9A83278440370719
:1026B0005000D98F2324F440372701408327074057
:1026C000898BEDDFB727014003A5C744335595003B
:1026D00042054181B24022449244410182805D71B1
:1026E00086C6A2C4A6C2CAC04EDE2A84AE8932897A
:1026F000B684B7070240A1076308F508B707024090
:10270000F1076303F508B707024093870703630DDA
:10271000F506B7070240938747046307F506B70736
:102720000240938787056301F506B7070240938748
:10273000C706630BF504B7070240938707086305D4
:10274000F504B707024093878740630AF502B7078D
:1027500002409387C7416304F502B707024093879D
:102760000743630EF500B7070240938747446308A9
:10277000F500B707024093878745631BF500854541
:102780000945EFE09FF929A085450545EFE0FFF8F1
:102790002285EFE03F974EC24AC402C626C802CA4D
:1027A000930700083ECC02CE02D002D28D673ED401
:1027B00002D64C002285EFE03FAC054689452285D4
:1027C000EFE09FB085452285EFE09FAEB6402644FE
:1027D00096440649F25961618280011106CE22CCED
:1027E00026CA2A84AE8485450545EFE0FFF451C42E
:1027F0008547630BF4088947630DF4088D47630F21
:10280000F40891460146814526857128FD57231419
:10281000F1002312010023150100231301002306F8
:1028200001000A04A9679387C7463E9400404C0004
:102830002285EFE03FFC8146216681452285EFF04D
:102840006FB5930500072285EFF0AFB6914522855D
:10285000EFF06FC2930500082285EFF0AFC3854506
:102860002285EFF08FAB054691652285EFF00FAF23
:10287000F2406244D24405618280854505651305B6
:102880000580EFE07FEBB5BF85450545EFE0BFEC88
:102890008DBF85450945EFE01FECA5B7854511457E
:1028A000EFE07FEBB9BF130700086306E51079710D
:1028B00006D622D426D24AD04ECE52CC93575500BB
:1028C00013F977001374F501368AB289AE848DCB83
:1028D00005476389E7060947638BE7060D47638D64
:1028E000E70611476380E70815476383E708194740
:1028F000639CE700854513050010EFE0FFE329A086
:1029000085451145EFE05FE3854733948700420436
:102910004180231281006383F4069376FA0F36C652
:1029200013172900A9679387C745BA974C008843B6
:10293000EFE01FABB250225492540259F249624A5E
:102940004561828085452145EFE01FDF75BF8545E4
:102950004145EFE07FDE4DBF854513050002EFE006
:10296000BFDD5DB7854513050004EFE0FFDC69BFFF
:10297000854513050008EFE03FDC79B793170A019E
:10298000C183A1839DE78D473EC49376FA0F36C677
:1029900013172900A9669386C645369704434C0051
:1029A0002685EFE0FFA34E86A2852685EFE0FFAFE8
:1029B00051B73EC4D9BF8280935755009D8B7D8906
:1029C0000547638DE5008A0729671307C745BA974E
:1029D000984385473395A70048CB82808A072967AB
:1029E0001307C745BA97984385473395A70008CB87
:1029F0008280135735009376C70129671307C745AF
:102A000036971C43984785473395A700798D333512
:102A1000A0008280011106CE22CC26CA4AC82A8490
:102A2000AE84328985450545EFE01FD1CA8601464F
:102A3000814522858D3D135554009375F40113751E
:102A4000F50FEFE0DFB085473394870022C002C264
:102A500026C43EC60A85EFE03F8CF2406244D24471
:102A6000424905618280B7E700E07D5723A0E7185F
:102A700023A2E7188280011106CE2304A100A3043B
:102A8000B1002305C10036C62800EFE01FAF37E6CE
:102A900000E01842B7370020FD76F98E03A70782C1
:102AA000558F23A0E782584293870782120711832C
:102AB000D443558FD8C303C7870085476305F70004
:102AC000F240056182804537E5BF411106C6930794
:102AD0000020630DF51C63F0A70493073021630207
:102AE000F52263E7A70E930730206301F51E63F01C
:102AF000A70C930710216304F51E63EBA71E930731
:102B000000216318F51293068031014685451305AF
:102B10006004513B39AA93071010630FF51263FA52
:102B2000A702930700116309F51463F2A706930740
:102B300020116304F5166369F51493073011631AC5
:102B4000F50E93068031014685451305B002A13B81
:102B5000CDA089476302F50E63F0A7028D47630598
:102B6000F50E930700106316F50C930680310146AD
:102B7000854501450D3B75A855C58547631BF50A7D
:102B800093068031014685452545313B5DA093077D
:102B90002010630BF50C93073010631CF5089306A7
:102BA0008031014685450D45EFF0FFCF59A09307D1
:102BB00010206305F51093072020631CF50693068B
:102BC00080310146854513050002EFF0DFCD95A069
:102BD000930700306309F51463F5A70293072030CB
:102BE0006305F516636AF514930730306313F50433
:102BF000930680310146854513059002EFF0BFCA68
:102C00000DA8930700226307F510930710226312A3
:102C1000F502930680310146854513055002EFF019
:102C20009FC801A893068031014685452145EFF0F4
:102C30009FC7B2404101828093068031014685459D
:102C40002945EFF05FC6F5B793068031014685450B
:102C50002D45EFF05FC5F1BF9306803101468545F4
:102C60000545EFF05FC4F1B7930680310146854515
:102C70000945EFF05FC375BF930680310146854576
:102C80003D45EFF05FC275B793068031014685453B
:102C900013053002EFF03FC169BF93068031014652
:102CA00085451305A002EFF01FC061B79306803180
:102CB000014685451945EFF01FBFA5BF930680313A
:102CC000014685451D45EFF01FBEA5B7930680312F
:102CD0000146854513051002EFF0FFBC99BF93062E
:102CE00080310146854513057004EFF0DFBB91B7D5
:102CF000930680310146854513058004EFF0BFBA85
:102D00000DBF930680310146854513059004EFF011
:102D10009FB905B7930680310146854513054002EA
:102D2000EFF07FB839B7930680310146854513052A
:102D30006002EFF05FB7F5BD93068031014685452F
:102D400013057002EFF03FB6EDB5930680310146F2
:102D5000854513058002EFF01FB5E1BD397106DE30
:102D600022DC26DA4AD84ED6AA84AE893289EFF020
:102D7000DFD513D4840075C085476307F40E8947F7
:102D8000630CF4108D47630FF41285450545EFE0A1
:102D9000BF9AB7170240DC43C983BD8B37177A004F
:102DA00013070720B387E7023727F400130707400C
:102DB000BA9723A6F18633D73703418393051700CB
:102DC000B3853503B3D7B7029386F7FF231CD10031
:102DD000231AE100231D0100231B0100230E010023
:102DE000130700072312E10005472313E100231412
:102DF0000100C207C183B38727030967130707715F
:102E0000B3D7E7022315F10089472316F1002317F2
:102E1000F10023180100231901000A04A967938710
:102E2000C7463E9400404C082285EFE0BF9C8D8849
:102E3000F9C08547638CF40E89476387F4104C0012
:102E40002285EFE05FC5A1452285EFE0BFDB93055A
:102E500000402285EFE09FE05DA8854505651305EC
:102E60000580EFE07F8D15B785450545EFE0BF8E06
:102E700085450545EFE05F8C93D744004147638863
:102E8000E7044547E397E7F0854537051800130544
:102E90000530EFE02FE2F5BD85450945EFE0BF8B3A
:102EA00085450545EFE05F8993D74400130710027D
:102EB0006397E702854537151A00130505C0EFE053
:102EC0006FDFC1BD85451145EFE0FF887DBD8545BC
:102ED0003705160013050504EFE0CFDD5DBD1307D0
:102EE0002002E398E7EA854537151A0013050580A7
:102EF000EFE04FDC79BD4C002285EFE01F9BA14540
:102F00002285EFE05FCC91452285EFE05FD18545DA
:102F10002285EFE09FC085452285EFE05FC2F25039
:102F20006254D2544259B259216182804C002285A8
:102F3000EFE05FA0A1452285EFE01FCA93050040A6
:102F40002285EFE0FFCEE1B74C002285EFE0BFA97C
:102F5000A1452285EFE0FFC991452285EFE0FFCE34
:102F60007DB71357850093172700A9669386C64639
:102F7000B6979C4383D7C702B385F50289679387C9
:102F80000771B3D5F50201EF0D89B757001093878C
:102F9000D7B03E950A05C205C1810CC18280854724
:102FA0006309F70089476300F7028D476308F7025A
:102FB00082800D89B7070010B5073E950A05C20546
:102FC000C1810CC182800D89B70700109387D7108B
:102FD0003E950A05C205C1810CC182800D89B707E3
:102FE00000109387D7203E950A05C205C1810CC108
:102FF000C1B7411106C622C426C24AC0AE8432847B
:1030000036892DCDC1476303F50893070002631885
:10301000F50893068031054685451305D002EFF08B
:103020009F888547638CF408C5476381F40A93073A
:1030300010026396F40A9306803105468545130510
:10304000F002EFF05F868947630AF40AC947630F0D
:10305000F40A930720026304F40C93073002631907
:10306000F40C93060031054685454A85EFF0BF8391
:10307000B240224492440249410182809306803149
:10308000054685451545EFF01F8261BF93068031E7
:103090000546854513053002EFF0FF8059B7B7A606
:1030A00000009386C64829661306C6479305D002DA
:1030B00037A5000013050549EF50B07D9306803118
:1030C000054685451D45EFF00FFEB5BF93068031DF
:1030D0000546854513055002EFF0EFFCADB7B7A6E6
:1030E00000009386C64829661306C6479305200349
:1030F00037A5000013050549EF50B07993068031DC
:10310000054685451945EFF00FFAA1BF93068031BA
:103110000546854513054002EFF0EFF899B7930691
:103120008031054685451305E002EFF0CFF715BF66
:10313000B7A600009386C64829661306C6479305BE
:10314000800337A5000013050549EF5090743971CD
:1031500006DE22DC26DA4AD84ED652D456D25AD0CF
:103160002A84AE89328AB68A3A8BBE84428941C5A6
:1031700085476308F508DA865686D2854E85953DE3
:1031800023160100930740102317F10023180100B4
:1031900085476383F40893978401E187ADCB894722
:1031A0006382F4088D476385F40893070020231B8E
:1031B000F1000E09231C2101231D01009D47231E40
:1031C000F1000A0413858181229500416C0022855B
:1031D000EFE04FDAC1476384F90685452285EFE0C9
:1031E0000FDFF2506254D2544259B259225A925AC5
:1031F000025B21618280854505650505EFE0CFD33F
:103200009DBF854511650505EFE0EFD4ADB72319E6
:103210000100231A010051BF231901008547231A19
:10322000F10061B789472319F100231A0100B5BFE6
:1032300089472319F1008547231AF100BDB7854559
:103240000545EFE02FA751BFAE96938781810A0510
:103250003E956387B602184183578700898BEDDF5F
:10326000850583C7F5FF2316F70065D683578700CA
:10327000858BEDDF8357C7002300F6000506D1BF1D
:1032800082807D15420541816DFD8280411106C617
:10329000EF10D038B24041018280411106C60DE5E1
:1032A00085476385F500B2404101828093068031F5
:1032B000014685452545EFF00FDF914601468145E2
:1032C0002945EFF04FDEC5B789476309F502C147CD
:1032D0006306F504930700026310F5069306803138
:1032E000014685451305A002EFF0EFDB914601464C
:1032F00081451305B002EFF00FDB75B793068031FF
:103300000146854513056002EFF0EFD9914601466D
:10331000814513057002EFF00FD971B79306803124
:10332000014685450945EFF00FD891460146814594
:103330000D45EFF04FD785BF93072002E315F5F653
:1033400093068031014685451305A004EFF0AFD503
:103350009146014681451305B004EFF0CFD4A1B7E3
:10336000797106D622D426D24AD04ECE2A84AE898E
:10337000B284368985450545EFE00FBCCA852685B0
:10338000293F89476381F402930720026390F40286
:1033900093073002631CF900854537051400410589
:1033A000EFE04F9121A08D47630AF90429CC8547AE
:1033B0006300F40689476303F4064EC0231201003C
:1033C000231301002314010023160100B147231524
:1033D000F1000A04A9679387C74B3E9400408A8591
:1033E0002285EFE0DF8F85452285EFE0DF9EB2503A
:1033F000225492540259F249456182808545114513
:10340000EFE04F8B65B785451165EFE0EFB275B71B
:10341000854537050200EFE00FB445B78545370510
:103420000400EFE04FB351BF0A05A9679387C74B6C
:10343000AA9798438357070093F70708E5DFC2056B
:10344000C1812312B70082801DC6411106C622C465
:1034500026C24AC02A892E84B384C5000504834548
:10346000F4FF4A85D137E39B84FEB2402244924464
:103470000249410182808280411106C622C426C2CF
:103480002A84AE8413172500A9679387C74BBA9780
:103490000546930550528843EFE0FF95A686014606
:1034A000854513055403EFF00FDDB24022449244EA
:1034B000410182800A05A9679387C74BAA97984361
:1034C0008357070093F70702E5DF83574700238000
:1034D000F50082800A05A9679387C74BAA9798438E
:1034E0008357070093F7070299E3014582808357CA
:1034F00047002380F5000545828003A5018782806F
:10350000411106C6938701879843050798C3EF10BA
:10351000A0743C45FD173CC591C7EF10B037B240D1
:10352000410182807C413CC5EF10607FFDB7634262
:1035300005029307803E3347F5023307F7023365F0
:10354000F5023305F5021305753E3345F5023A954C
:1035500082807D55828001458280014582800145BF
:103560008280014582802D6713078704AD679387AA
:10357000C704637CF702411106C622C426C22D642B
:1035800093048404AD679387B704858FF19B9107FB
:10359000BE94130484041C4082971104E31D94FE1E
:1035A000B240224492444101828082802D671307F9
:1035B000C704AD6793874705637CF702411106C6D0
:1035C00022C426C22D649304C404AD6793873705D3
:1035D000858FF19B9107BE941304C4041C4082970D
:1035E0001104E31D94FEB2402244924441018280C2
:1035F0008280411106C65D3FEFD09F85B2404101F8
:103600008280411106C6D147094793060040014612
:10361000B73500009385255F37A500001305C54C1D
:10362000EF10E063EF10B005B2404101828041111C
:1036300006C6EFC0FFB0EF20B03EEF007059EF10AC
:10364000702EEF10C02F753FEF10702EF120EF108D
:1036500020320145B24041018280411106C6C13F7E
:103660000145B2404101828003A7C1899387C18986
:10367000630FF708011106CE22CC26CA4AC84EC6EF
:1036800052C456C29389C189854A2DA02685EF1060
:10369000802A630A5505EF1080445285EFC0BFAA07
:1036A0004848EF10E0062685EF10A02583A7C189C2
:1036B00063863705EFC0DFA82A8A83A7C189638D97
:1036C000370303A4C1899304C4FE18405C405CC363
:1036D000184098C340C000C0EF10603E7C50DDD75A
:1036E0002685829765B72685EF108018EF10203F5A
:1036F0005285EFC05FA519A0EFC0FFA4F24062445D
:10370000D2444249B249224A924A0561828082806B
:10371000411106C6913FFDBF411106C622C4373490
:103720000020930800021D4893070030373700201F
:103730001307C78A81463736000013060671B7A5FE
:1037400000009385454D1305C482EF10E045130535
:10375000C482EF10C072B240224441018280411104
:1037600006C622C426C24AC02A843289B6842E865E
:103770008945EF10C008930744011CCC5CC8231E88
:103780002401A30494000145B2402244924402491A
:1037900041018280411106C622C426C2AE84328411
:1037A000AA850945EF10A00F09C9930745011CCD53
:1037B0005CC9231E9500A3048500B24022449244B4
:1037C00041018280797106D622D426D24AD04ECECB
:1037D00052CC2A842EC6EFC0BF96AA898357C40153
:1037E000A1E7B247A9CBEF102047AA8423280502FE
:1037F00013094401034A9400EF10605863010A045E
:1038000085476308FA04B2476348F0084E85EFC065
:103810009F93EF1000198858B250225492540259C5
:10382000F249624A45618280FD17231EF400EFC011
:103830009F910145D5B7EFC01F917955F1BF93878F
:103840004401184C1CC3184C98CC1CCC23AA24014E
:103850005DBF5C486308F90283C6540303C71702BF
:1038600063E9E6009C43630FF90003C71702E3FB1B
:10387000E6FE13874401D44398C2D44394CCD8C302
:10388000DCC851B793874401184C1CC3184C98CC22
:103890001CCC23AA240185BF1384C4047000814575
:1038A0002285EF10207B2285EF10E06C85B7411157
:1038B00006C622C426C22A84EFC09F88AA8448482C
:1038C000930744016300F5023115EF104056268539
:1038D000EFC07F87EF10E00C0145B24022449244D4
:1038E000410182808357C4018507231EF400268589
:1038F000EFC07F85D5B7411106C622C426C24AC093
:10390000AE843289AA851545EF0070792A841DC9D5
:10391000A3042501930745011CCD5CC92310950222
:103920001395040141810A05EF00304848CC15C1C8
:1039300023110402231204022313040293078402B6
:103940005CD41CD42285B2402244924402494101F5
:1039500082802285EF00F07A0144EDB7397106DEEE
:1039600022DC26DA4AD84ED652D456D25AD05ECE6F
:1039700062CC66CA2A842E8C32C6EF10E02DAA844F
:10398000EFC00FFCAA89035724028357040263097E
:10399000F704035744025C4C0A07BA9723A0870137
:1039A000835744028507C207C1832312F4020357D9
:1039B000040263E4E700231204028357240285070C
:1039C0002311F40248485104630785123115EF10A2
:1039D00000464E85EFC02FF7EF00B07C014525A0D3
:1039E000B247814C89CB130A8402938A4401054B68
:1039F000938BC404B9A8EFC00FF5755529A04E8567
:103A0000EFC06FF47555F2506254D2544259B25916
:103A1000225A925A025BF24B624CD24C2161828054
:103A20005C5423A057015C549CCC2326540323AA46
:103A30004401B2476345F0084E85EFC0CFF0EF0078
:103A40005076885869F1EFC0AFEFAA89B247634456
:103A5000F0080357240283570402E31CF7F223A85B
:103A60000402B247C9DF034994002685EF102031D4
:103A7000E30809FAE31F69FB1C546308FA0283C6D2
:103A8000540303C7170263E9E6009C43630FFA007F
:103A900003C71702E3FBE6FED84323205701D843B0
:103AA00098CC23A25701DCC869B75C5423A0570106
:103AB0005C549CCC2326540323AA44019DBFEFF001
:103AC000DFA3AA8C700081455E85EF10A0585E854B
:103AD000EF10604A95B7EFF05FA233079541B24708
:103AE000E6973385A740634505002AC6BA8C95B78B
:103AF00002C6BA8CB9BF4E85EFC0EFE4014521B7CD
:103B0000411106C60146EFF07FE5B24041018280D7
:103B1000397106DE22DC26DA4AD84ED652D456D285
:103B20005AD05ECE62CC66CAAA842E8C32C6EF1002
:103B3000A0122A84EFC0CFE0AA8983D72402639C15
:103B40000710B247814C89CB138A4401930A440180
:103B5000054B930BC4048DA0EFC0EFDE795539A05F
:103B60004E85EFC04FDEF9571CD87955F25062549C
:103B7000D2544259B259225A925A025BF24B624CC9
:103B8000D24C216182809C4C23A057019C4C1CCCC0
:103B900023AC5401232A4401B2476342F0084E8506
:103BA000EFC06FDAEF00F05F085869F1EFC04FD94E
:103BB000AA89B2476341F00883D72402C9EF2328BA
:103BC0000402B247D1DF03C994002285EF10201B05
:103BD000E30B09FAE31269FDDC486308FA02834645
:103BE000540303C7170263E9E6009C43630FFA001E
:103BF00003C71702E3FBE6FED84323205701D8434F
:103C000018CC23A257015CC841BF9C4C23A057018C
:103C10009C4C1CCC23AC5401232A4401B5BFEFF0CB
:103C2000DF8DAA8C700081455E85EF10A0425E8515
:103C3000EF106034ADB7EFF05F8C33079541B247BA
:103C4000E6973385A740634505002AC6BA8CADB711
:103C500002C6BA8C95B703D76402DC4C0A07BA9740
:103C60009C432320FC0083D764028507C207C183DD
:103C70002393F40203D7040263E4E70023930402CE
:103C800083D72402FD172391F4028854938484027D
:103C9000630C95003115EF1080194E85EFC0AFCA47
:103CA000EF0030500145D9B54E85EFC0CFC9014571
:103CB00075BD411106C6EFC0AFC813874187834762
:103CC0000700850793F7F70F2300F700EFC0AFC792
:103CD000B24041018280411106C6EFC06FC6138712
:103CE000418783470700FD1793F7F70F2300F7007D
:103CF000EFC06FC5B2404101828041119378080442
:103D0000639F0802296F130F0F7D93780801638C5E
:103D100008021378E8FF9302000293782800638476
:103D20000804634B060293784800930FB002639D2A
:103D30000802937F8800B33FF001960F35A0296FEA
:103D4000130FCF72D9B79378180093020003E3964C
:103D500008FC93020002D1B73306C040930FD00293
:103D60008148A94E81A8814F65FE93060003230078
:103D7000D1008548468E63D3F8003E8E3307C74195
:103D800093761801BDE263880F10635EE00E1303A3
:103D9000E7FF854663C5E6101A87FDA01373F6009A
:103DA00011828508330E11017A9303430300A30F98
:103DB0006EFE69D2E394D6FF3373D6033356D6032F
:103DC000CDB70507B306E6406357D000E37BB7FEE7
:103DD0002300D701FDB71307F3FF1346F3FF7D86DA
:103DE000B376C300158F85063695639F0F08137849
:103DF0000801631208029306F7FF6357E0042A974D
:103E000021A005056307E500E37DB5FE230055000D
:103E1000CDBF3A857D57B3061E41AA96130600030F
:103E200063CFC801AA86635F10038DCF46830A85DE
:103E300033061501B68739A80505E306D5FEE37DEF
:103E4000B5FE2300C500CDBF3687F1B785077D16C7
:103E50006309A600E3FCB7FE0348F6FF23800701D1
:103E6000F5B79A963385E600930700026348E000B1
:103E70003685410182808506E38DA6FEE3FDB6FE10
:103E80002380F600CDBF7D176374B5002300F501D4
:103E90007D170505A9BF1303F7FF6359E0002A87C3
:103EA000930E0002130615001A960DB71A8781B7F4
:103EB0008D4763F9C700937735008DC71307F6FF69
:103EC000AA8729A0AA871307F6FF01CE05073E9708
:103ED0008507A38FB7FEE39DE7FE8280BA874286FF
:103EE000DDB7828093F7F50F93968700D58F939671
:103EF0000701DD8EBD4763F1C704930706FFC19B31
:103F0000C107AA972A8714C354C314C74107232E95
:103F1000D7FEE39AE7FE1378F600318A61D2930761
:103F2000C8FFF19B9107BA971107232ED7FEE31D17
:103F3000F7FE1376380041BF2A873288CDB763E099
:103F4000A502B306C500AA8711CA850585070387A0
:103F5000F5FFA38FE7FEE39AD7FE82808280338746
:103F6000C500E370E5FEB307C50065DA7D17FD17F0
:103F7000830607002380D700E31AF5FE828009CE6E
:103F8000AA868505938716000387F5FFA38FE7FEB2
:103F900009C77D16BE8675F682801307F6FF6DDFB2
:103FA00036968507A38F07FEE31DF6FE8280830702
:103FB000050089CBAA878507038707006DFF338536
:103FC000A7408280AA87E5BF5D7186C6A2C4A6C24B
:103FD000CAC04EDE52DC56DA5AD85ED662D466D2F9
:103FE0006AD06ECEAA8C2E8D368CB30AB50063F5DE
:103FF000AA00134DF5FFFD5A83070600E689638288
:104000000736930B50021309B0022967930DC74D71
:1040100041677D173AC409A8850932841306140044
:1040200083071400638F073263877701E3F659FF34
:104030002380F900D5B781441307D002930600020C
:10404000930530021305000321A093E404012286A6
:104050001304160083071600E389E7FE638B27012C
:10406000638CD700638DB700639EA70093E41400B0
:10407000F9BF93E44400E1BF93E48400C9BF93E433
:104080000402F1B73E87938607FDA54563F6D50484
:104090001307A0027D5A6382E70603070400930713
:1040A000E0027D5B6309F7068307040013F6B7FFA0
:1040B000930680060147630CD60A83470400938762
:1040C000B7FD13F6F70F9306300563E8C620931784
:1040D0002600EE979C438287014AA5460504931764
:1040E0002A003E9A060A3A9A130A0AFD03070400B8
:1040F000930707FDE3F4F6FE4DB71304260093077C
:104100004C00032A0C003E8CE3590AF8330A404164
:1041100093E4040159B71307140083071400BE8603
:10412000938507FD25466379B6009306A002638652
:10413000D7023A84014B8DBF014B050793172B0023
:10414000DA978607B697138B07FD830607009387D8
:1041500006FDE374F6FE3A8429A00904032B0C0043
:10416000110C9347FBFFFD87337BFB0035BF13F733
:10417000F70F050499B7C14641AAC1889DC09306AF
:104180004C0063F6590183270C002380F9009387C4
:10419000190005476351471D52864E9A13070002C6
:1041A0000DA89307FAFF6351F002CE9713070002A0
:1041B00021A0850963873701E3FD59FF2380E900CA
:1041C000CDBFBE89014A65BF3E8A55BF850763875B
:1041D0004701E3FD57FF2380E700CDBFB299368C3E
:1041E00035BD93074C003EC6032C0C0063010C0246
:1041F0006285EFF0DFDB635560016353AB005A85E6
:10420000C18899C86350A006B387A900A9A0B7A721
:104210000000138C877CE9BF9306FAFF63574503C0
:10422000D2852A87B307AA40CE971306000221A0A1
:1042300085096387F900E3FD59FF2380C900CDBFDD
:10424000330AB740369ABE8975BF368A65BF85097D
:10425000050C638AF900E3FC59FF03070C00238077
:10426000E900F5B7CE87635B450F3305AA40B389F4
:10427000A7001307000221A0850763873701E3FD2C
:1042800057FF2380E700CDBF324C49BBFD57630287
:10429000FA0293074C003EC62688DA875287C14649
:1042A00003260C00D6854E85EFF03FA5AA89324C37
:1042B000B5B393E41400214AE9BF63F659019307AB
:1042C00050022380F900850991BB93E40404C146A0
:1042D00025A893E42400A94605A863F6590193078D
:1042E00050022380F900138719008307040099C73F
:1042F00063745701A380F90089090DB37D14BA894D
:1043000031BBA94611A0A1469307C0066302F7027C
:10431000930780066302F70203260C00110C26881F
:10432000DA875287D6854E85EFF03F9DAA89FDB189
:1043300003260C00110CE5B793074C0003260C0074
:1043400013F7240009E72247798E3E8CC9BF420645
:1043500041863E8CE9B7368CBE89C9B1324CBE89E4
:1043600075B963060D0063F5590323800900338591
:104370009941B640264496440649F259625AD25AA7
:10438000425BB25B225C925C025DF24D61618280B5
:10439000A38F0AFEE9BF397106CE22CC2ED232D4C9
:1043A00036D63AD83EDA42DC46DE541036C63734CA
:1043B00000202A869305F0071305C4BAEFF0DFC08A
:1043C0001305C4BAEF107077F24062442161828015
:1043D000411106C637A5000013050574EFF0BFFBB9
:1043E00037A500001305C574EFF0FFFA37A70000EA
:1043F000130707778D4605468D4537A50000130541
:10440000C577EFF05FF937A500001305C579EFF028
:104410009FF8B240410182800DC59377F50F9DE36F
:10442000C167938707F0E98F95E7B707FF00E98F2A
:104430008DEF6181A9679387C7623E9503450500AB
:104440006505828029671307C762BA9703C507000D
:104450000505828021851375F50FA9679387C762CB
:104460003E95034505002505828041851375F50FAE
:10447000A9679387C7623E9503450500450582807D
:1044800003A7C1875C41BA976304F50283D627006E
:1044900085E283A68187638DF60083A60188638BFE
:1044A000F602D44354C1DC43BA97B306E54094C73F
:1044B0001445B307D700630EF50003D6270011EAB1
:1044C00003A60188630BA6005041D0C35C413E9710
:1044D00014C7828023A0A188E9B723A0F188EDB793
:1044E000411106C683A5818837A500001305057F05
:1044F000EFF07FEA83A5C18837B50000130545803A
:10450000EFF07FE983A5418837B500001305858169
:10451000EFF07FE8B24041018280411106C622C41B
:1045200013F7C5FFE14663F9E60093073500F19BF9
:10453000930687FE63FEF6002E86AA8537B5000037
:104540001305C588EFF03FE5B24022444101828067
:104550001D8F130687FE23A4C1881384C1871CC046
:104560008966938606EA2390D7005117D8C323A4FF
:10457000070023910700BA9723ACF1862390D70058
:1045800085462391D700D8C398C781460546B7B55D
:10459000000093854588373500201305C5C2EFF02C
:1045A0000F9C184023A0E18845B7630A051241110A
:1045B00006C622C426C293043500F19883A78188D9
:1045C00063E19712B14763F3F400B144FD55373509
:1045D00000201305C5C2EFF0EF9E03A5018883A656
:1045E000C187B307D54003A881883306984063E4A8
:1045F000C706373500201305C5C2EFF04FAB0145A4
:10460000B240224492444101828085472311F40044
:104610009387C1889043329798C383A7418863F0FA
:10462000E70A23A2E18861A883572500C5C303A731
:104630008187630DE508484136958357250091C76A
:10464000E31BA7FE23A0A18851A023A0A188BDA899
:104650005C40E3F0C7FA3384F600035724006DFB97
:1046600058401D8F930547FFE3E495FE13868401B0
:10467000E3EDC5F81386C4003E963387C60089650E
:10468000938505EA2310B700231107004C404CC363
:104690001CC750C085472311F4005C433108638474
:1046A0000701B69790C71387C1881C43B107BE9412
:1046B00004C383A7418863F4970023A29188896784
:1046C000938707EA2310F400E30085F637350020CE
:1046D0001305C5C2EFF0AF9D1305C40015B7014522
:1046E0008280014531BF411106C622C426C2B304EF
:1046F000B5022685EFF07FEB2A8409C52686814521
:10470000EFF00FFB2285B2402244924441018280A7
:1047100009C983A7C1876366F50083A7818763639F
:10472000F5008280411106C622C426C22A84930461
:1047300045FFFD55373500201305C5C2EFF08F88C2
:10474000835764FF81CB035744FF8967938707EA48
:104750006303F70237B5000013058583EFF0BFC38D
:10476000835644FF035664FFA68537B50000130542
:104770004585EFF05FC2231B04FE8967938707EA34
:10478000231AF4FE83A7018863F4F40023A0918820
:104790001387C1881C43832684FF958F83A6C18716
:1047A000B386D440B6971CC32685EFF07FCD37354E
:1047B00000201305C5C2EFF08F8FB240224492440F
:1047C00041018280B707002083A747056301F502F6
:1047D000B70700209387470505471546944B638923
:1047E000A6000507C107E31BC7FE014582800147FC
:1047F000120737050020130545053A9582800111FF
:1048000006CE22CC26CA4AC84EC652C4AA84AE8955
:10481000328A2E85EFF01FFB2A8955248327490011
:1048200013044900638587009C43E39F87FE452C62
:1048300093E909F8238434012146D2852685EFF0D7
:104840000FF4EFB0FF8F9387C400032749005CC3C8
:1048500003274900D8C42322F90080C8EFB0BF8ED7
:10486000F2406244D2444249B249224A0561828000
:10487000411106C622C42A8423040500EFB05F8CD0
:104880009307C40054441848D8C2544414C31CC8E5
:104890005CC4EFB05F8BB2402244410182800111C1
:1048A00006CE22CC26CA4AC84EC6AA892E89EFF067
:1048B0007FF1AA844845EFF05FCF2A841DC9D04418
:1048C0008145EFF0EFDE23043401A3040400214608
:1048D000CA852285EFF0AFEAEFB09F869307C40048
:1048E000D8405CC3D84058C4DCC0910404C8EFB0C1
:1048F0009F852285F2406244D2444249B249056113
:104900008280411106C622C42A8423040500EFB028
:104910003F839307C40054441848D8C2544414C376
:104920001CC85CC4EFB03F822285EFF07FDEB2404E
:10493000224441018280030585007D818280239C81
:104940000188B73700209387C7C413870704DCC3E7
:104950009CC3A107E39DE7FE1D472388E18823AAA6
:10496000018823A2018A9387C189DCC39CC382800A
:10497000411106C603A5418AEFF01FAA7D159317C2
:104980003500373500201305C5C43E95084113078F
:10499000C5FE23AAE1882105EFB04FFBB2404101DB
:1049A0008280411106C622C4EFB08FF92A84839712
:1049B0008189B1E303A5418AEFF01FA67D15131786
:1049C0003500B73700209387C7C4BA978C439387C5
:1049D000C5FE03A741896300F7022388A18823AAA3
:1049E000F18883C7418793F7F70F89CFA105130596
:1049F000C701EF00C0782285EFB0EFF4B240224447
:104A000041018280A1051305C701EF0000762285D0
:104A1000EFB06FF3E5B7411106C622C42A84EFB0A8
:104A20002FF283474403C19B93E71700230AF40244
:104A3000834754039306440113973700B737002088
:104A40009387C7C4BA97D84314C3D84318CCD4C3E8
:104A50005CC89387418A185C9443558F98C3EFB024
:104A60008FEEB240224441018280411106C622C429
:104A70002A84EFB0EFEC930744015448184CD8C295
:104A8000544814C31CCC5CC88347540313973700A5
:104A9000B73700209387C7C4BA9798436308F700D5
:104AA000EFB06FEAB2402244410182801387418A0D
:104AB0001C5C93C7F7FF1443F58F1CC3D5B7411196
:104AC00006C6EFB0EFE79387818903D70700050794
:104AD0002390E700EFB02FE7B240410182804111FF
:104AE00006C6EFB0EFE51387818983570700FD17EE
:104AF000C207C1872310F7006357F000EFB0AFE49F
:104B0000B24041018280239C0188EFB0CFE383A7AC
:104B10004189FDD7EFF0FFE8E5B7411106C622C491
:104B200026C203A44189EFB0AFE1AA842285EFF049
:104B3000DFF39147230AF4021305C404C12622853A
:104B4000EFF07FDF85476307F5021307440183A673
:104B5000C189D8C254C823AEE1889387C1891CCCCF
:104B60002685EFB04FDEEFF0DFE3B24022449244FF
:104B7000410182803C5CF1FB2285EFF07FCFCDB715
:104B8000411106C6795718D9130745015049144DEC
:104B900054C2504990C218CD58C9EFF0DFE7EFF08A
:104BA0005FE0B24041018280011106CE22CC26CACC
:104BB0004AC84EC652C456C25AC02A84328BB68ADC
:104BC000BA893E8A4289C6842E868545EFF03FC366
:104BD000930744011CCC5CC82320640323225403A4
:104BE00023243403232644035286930530024E8542
:104BF000EFF00FAC5C54F1171054B75600009386D9
:104C0000A6B13E964C500850252348CC230B2403D4
:104C1000A30A2403232C040264C024C4232804020E
:104C2000230A0402232C0406232E0406814701478D
:104C3000A28637560000130606B8A2851305C404E1
:104C4000BD240145F2406244D2444249B249224A5D
:104C5000924A024B0561828003A54189828001113D
:104C600006CE22CC26CA4AC84EC652C456C2AE8A06
:104C7000328AB684BA893E89AA850545EFF03FC2DB
:104C800049CD2A842685EFF05F9259C193074401EC
:104C90001CCC5CC8232054032322440308D444D4EE
:104CA000268693053002EFF0AFA05C54F117105444
:104CB000B75600009386A6B13E964C5008508D29F9
:104CC00048CC230B3403A30A3403232C04022322ED
:104CD00024052324240523280402230A0402232C68
:104CE0000406232E040681470147A286375600009A
:104CF000130606B8A2851305C404552A2285F2407E
:104D00006244D2444249B249224A924A05618280B1
:104D10002285EFF01FBF0144D5B70144C5B741114B
:104D200006C6EFB0EFC183A7418903C747033D8B98
:104D300085466316D700D44B984F6398E600EFB0D2
:104D40008FC00145B2404101828013864701D8C21D
:104D5000D44B14C390CFD0CB83C657033737002032
:104D60008E061307C7C43697544390C2544394CF5A
:104D700050C3D8CBEFB02FBDEFF0BFC2D9B7834738
:104D80004503BD8B05476390E704411106C622C465
:104D900026C22A84EFB0CFBAAA8483474403C19BBA
:104DA00093E72700230AF4022285EFF01FCC1305B6
:104DB000C40485242685EFB00FB90145B2402244D2
:104DC0009244410182807D558280011106CE22CC21
:104DD00026CA4AC82AC6EFB0AFB62A8903A44189B9
:104DE0002285EFF0DFF99304C40470008145268525
:104DF0009524268549224A85EFB0EFB4EFF07FBABB
:104E00001858F9576309F7000145F2406244D2444B
:104E100042490561828023280402FDB7411106C67C
:104E2000EFE0EFF0EFF07FFAB2404101828083477C
:104E30004503BD8B09476392E704411106C622C4AE
:104E400026C22A84EFB0CFAFAA8493074401544806
:104E5000184CD8C2544814C31CCC5CC81305C404F5
:104E60004D2A2685EFB02FAE2285EFF0DFBA01453F
:104E7000B24022449244410182807D55828041119A
:104E800006C683466503A30AD50205473317D70034
:104E900018DD0947230AE502EFF07FF983A741896E
:104EA00099C3EFF01FB00145B2404101828001116A
:104EB00006CE22CC26CA4AC84EC652C42A84328A9A
:104EC000B6893A89BE842E86A945EFF05F93F9989A
:104ED000A3049400232E440123203403232404023A
:104EE00023222403930744011CCC5CC8F240624493
:104EF000D2444249B249224A05618280411106C624
:104F000022C42A84EFB0CFA3930744015448184C1D
:104F1000D8C2544814C31CCC5CC8EFB0CFA22285C1
:104F2000EFF01F950145B2402244410182800111FA
:104F300006CE22CC26CA4AC84EC6AE893289B6846D
:104F40003A84AA852945EFF09F9519CD7998A30455
:104F50008500232E3501232025032324050244D177
:104F6000930745011CCD5CC9F2406244D2444249DA
:104F7000B24905618280411106C622C426C22A8434
:104F8000EFB00F9C9304440158481C4C5CC3584834
:104F900098C304CC44C883479400F99BA304F4004D
:104FA000EFB06F9AEFE06FD55C503E9508D4EFB04C
:104FB0002F999387C18ACC431387C18A3708008011
:104FC0001348E8FF11A03687638CE5001443DC4AE0
:104FD0001054E38AC7FE918F6374F8003687EDB7EB
:104FE0009387818A9443850694C31C43C4C31C439E
:104FF0005CC804C318CC8347940093E71700A3044C
:10500000F400EFB04F940145B24022449244410174
:10501000828083479500858B99E37D55828041117D
:1050200006C622C42A84EFB0AF91930744015448C6
:10503000184CD8C2544814C31CCC5CC8EFB0AF9015
:1050400083479400F99BA304F4000145B240224435
:105050004101828085476385F50263DFB700894798
:105060006384F5028D47639FF5008347950093E7BE
:105070002700A304F50039A091E51C425CD119A0DA
:105080005C511CC20145828083479500F59BA304B7
:10509000F500CDBF011106CE22CC26CA4AC84EC6A5
:1050A00052C456C2EFE06FC52A8AEFB06F89AA8951
:1050B0009384C18AB707008013C9E7FF8D4A8040F7
:1050C000631E94004E85EFB00F88F2406244D244D4
:1050D0004249B249224A924A056182805C48330AB9
:1050E000FA40E36149FF18405C405CC3184098C334
:1050F00040C000C01C4448448297EFE00FC02A8A99
:10510000834754FF13F7370063065701F99BA30A3F
:10511000F4FE75B7F99BA30AF4FE1305C4FEEFF085
:105120009FE571BF9387C18ADCC39CC38280828064
:105130002A881106719A130506F8AA8737C7ADDECB
:105140001307F7EE98C39107E31EF6FE2322D6F865
:105150002324B6FA232006F9A1679387078823241E
:10516000F6F8828023AE018A828023AAA18A23AC2A
:10517000B18AB7E700E0116723A0E720828083A708
:10518000C18B99E323AAA18A23ACB18A054723AE38
:10519000E18AB7E700E0116723A0E7208280411190
:1051A00006C637B5000013058597EFF0CF9E014581
:1051B000B24041018280011106CE22CC26CA4AC8E3
:1051C0004EC6004163088502AA8437B90000B7B90A
:1051D000000001A81385C9C9EFF0EF9B0040638B65
:1051E00084009305C4FE130589C9EFF0CF9A1C40D3
:1051F000E39297FEF2406244D2444249B2490561CB
:105200008280411106C6EFF0AF9C0145B2404101DA
:105210008280011106CE22CC26CA4AC84EC623A8D7
:105220000500DC45BDC383C78500B5C32E892A842C
:1052300083A9050039CDEFA0BFF08347C4FF93F7E2
:10524000F7F7034789006391E70283274900814408
:105250000040638F89008504910723AE87FE0327F2
:10526000C900E31797FE31A0EFA0FFED014431A084
:105270000144EFA05FED232899002285F2406244AB
:10528000D2444249B249056182800144FDB70144DC
:10529000EDB7EFA0FFEA4E844DBF117186DFA2DDAE
:1052A000A6DBCAD9CED7D2D5D6D3DAD1DECFE2CDDE
:1052B000E6CBEAC9EEC70545EFF0CFD011052AD7F6
:1052C0008547230AF10A7C013ED9A1473EDD02DF72
:1052D00037B60000130686AFA14537B500001305A9
:1052E00005B0EFF04F8B2144B7B40000138544B4F0
:1052F000EFF06F8A7D147DF837B50000130585B493
:10530000EFF06F89814AB7BB000037BB0000B7BD23
:105310000000D5A8130A44FF13060008D2856800D0
:10532000EF30305D4E85EFA01FE203479402D28636
:105330002146A14513858BB8EFF0EF8583478402A2
:10534000BD8B05476382E70809476384E708D9C72F
:105350001147638AE7080D47638CE7084C4C03C785
:10536000050093073002631CF708AE86130730026E
:10537000850683C70600E38DE7FE1050B295B3861D
:10538000D54093074006B386F60208485C50585C47
:10539000B3D6C602898D13050BBDEFE0DFFF850490
:1053A0001109FA5763DFF40403240900EFA05FD961
:1053B000AA898347C4FF93F7F7F70347410BE38BB1
:1053C000E7F4EFA05FD8E1BF13854CB9EFE0BFFC75
:1053D00071B713050DBAEFE01FFC49B71305CCBA3E
:1053E000EFE07FFBA5BF13858DBBEFE0DFFABDB714
:1053F000B7B70000138547BCEFE0FFF985B7AE866D
:10540000ADBF63840A026C115685EFF09FE0AA8A53
:10541000FA57E358F0FE1309C108814437BC000075
:1054200037BD0000B7BC000041B70145FE506E54C7
:10543000DE544E59BE592E5A9E5A0E5BFE4B6E4C90
:10544000DE4C4E4DBE4D11618280011106CE22CC44
:1054500026CA4AC84EC652C437B500001305C598BF
:10546000EFE07FF303A4018C83A7418C637AF402FD
:10547000B7B9000037BA000031A0210483A7418CDE
:105480006370F402044009469385099A2685EF402B
:10549000A03E65D5A68513054A9AEFE0DFEFF1BF80
:1054A0000145F2406244D2444249B249224A056170
:1054B00082801D7186CEA2CCA6CACAC8CEC6D2C46E
:1054C000D6C2DAC02945EFF0EFAF11052AD6A947B9
:1054D000230AF1027C003ED8A1473EDC02DE37B64B
:1054E0000000130686BFA14537B50000130505C0AF
:1054F000EFE07FEA2144B7B40000138544B4EFE045
:105500009FE97D147DF837B50000130585C2EFE0F3
:105510009FE8014AB7B9000037BB0000B7BA0000E6
:1055200085A0EFA05FC285041109F25763D8F40487
:1055300003240900EFA0DFC08347C4FF93F7F7F708
:1055400003474103E39FE7FCEFA0FFBF5C4C184C0F
:10555000930644FF2146A1451385C9C4EFE0BFE38C
:105560008347D4FF858B91C713854AC6EFE0BFE21E
:105570005DBF13050BC7EFE01FE275B7630E0A00AE
:105580006C105285EFF0FFC82A8AF257E358F0FEFC
:105590001309C100814469BFEFD03FF6AA8537B532
:1055A0000000130505C8EFE01FDF0145F640664423
:1055B000D6444649B649264A964A064B256182801A
:1055C000597186D6A2D4A6D2CAD0CECED2CCD6CA53
:1055D000DAC8DEC61545EFF0EF9E11052AD69547CD
:1055E000230AF1027C003ED8A1473EDC02DE37B63A
:1055F0000000130606A2A14537B50000130585A2D9
:10560000EFE07FD92144B7B40000138544B4EFE044
:105610009FD87D147DF837B500001305C5A4EFE0D1
:105620009FD7014AB7BB000037BB0000B7BA0000E4
:1056300061A0EFA05FB105099109F257635CF9061B
:1056400003A40900EFA0DFAF8347C4FF93F7F7F788
:1056500003474103E39FE7FCEFA0FFAE9304840000
:105660001044638BC402930644FF035764018357BD
:105670004401014805081042E39EC4FE2146A145AD
:1056800013058BA6EFE03FD12685EFF0DFB213853F
:105690008A98EFE05FD045B701488357440103572C
:1056A0006401930644FF2146A14513850BA8EFE052
:1056B0009FCE51B7630E0A006C105285EFF07FB594
:1056C0002A8AF257E358F0FE9309C10001498DBFC1
:1056D0000145B650265496540659F649664AD64AAC
:1056E000464BB64B65618280597186D6A2D4A6D24C
:1056F000CAD0CECED2CCD6CADAC8DEC61145EFF0BB
:105700006F8C11052AD69147230AF1027C003ED8FE
:10571000A1473EDC02DE37B600001306869AA1459B
:1057200037B500001305059BEFE0FFC62144B7B471
:105730000000138544B4EFE01FC67D147DF837B533
:1057400000001305459DEFE01FC5014AB7BB0000EF
:1057500037BB0000B7BA0000ADA8EFA0DF9E050977
:105760009109F2576355F90603A40900EFA05F9D64
:105770008347C4FF93F7F7F703474103E39FE7FC31
:10578000EFA07F9C9304840010446388C4029306B6
:1057900044FF1848814785071042E39EC4FE214616
:1057A000A14513054B9FEFE01FBF2685EFF0BFA07B
:1057B00013858A98EFE03FBE5DB71848930644FF13
:1057C0002146A1451385CBA0EFE0FFBC49BF630E86
:1057D0000A006C105285EFF0DFA32A8AF257E358D3
:1057E000F0FE9309C100014941B70145B650265466
:1057F00096540659F649664AD64A464BB64B6561F9
:105800008280597186D6A2D4A6D2CAD0CECED2CCAE
:10581000D6CADAC8DEC60945EFE0DFFA11052AD696
:105820008947230AF1027C003ED8A1473EDC02DE14
:1058300037B60000130686A9A14537B50000130549
:1058400045AAEFE05FB52144B7B40000138544B426
:10585000EFE07FB47D147DF837B50000130505AC8B
:10586000EFE07FB3014AB7BB000037BB0000B7BA17
:10587000000041A0EFA03F8D05099109F257635840
:10588000F90683A40900EFA0BF8B83C7C4FF93F779
:10589000F7F703474103E39FE7FCEFA0DF8A138498
:1058A000840090446309C402938644FF03D7040133
:1058B000814785071042E31EC4FE2146A14513051A
:1058C0008BADEFE05FAD2285EFF0FF8E13858A98F8
:1058D000EFE07FAC55B7814703D70401938644FFBF
:1058E0002146A14513858BAEEFE0FFAA71B7630E89
:1058F0000A006C105285EFF0DF912A8AF257E358C4
:10590000F0FE9309C1000149ADBF0145B6502654D0
:1059100096540659F649664AD64A464BB64B6561D7
:105920008280011106CE22CC26CA4AC84EC652C475
:1059300037B500001305C5CFEFE0FFA503A4018C28
:1059400083A7418C637BF402B7B9000037BA00002B
:1059500031A0210483A7418C6371F40204401946ED
:10596000938589D12685EF30307165F59385640084
:1059700013050AD2EFE03FA2E9BF37B500001305D7
:105980008598EFE05FA10145F2406244D24442496C
:10599000B249224A05618280411106C6EFF0FF8FAD
:1059A0000145B24041018280411106C6EFE05FB37C
:1059B0000145B24041018280054582805D7186C605
:1059C000A2C4A6C2CAC04EDE52DC56DA5AD85ED68F
:1059D0002A84AA9513070002A54611A00504B384E2
:1059E000854083070400E38BE7FEE389D7FE01458A
:1059F00081ECB640264496440649F259625AD25A7E
:105A0000425BB25B61618280814A13070002A54656
:105A100011A0D28A138A1A00B307440183870700B2
:105A20006388E7006386D700E3159AFE268A19A0EB
:105A300063010A1403A9018C03AB418C637B6913D6
:105A4000B7BB000021A021096375691383290900F0
:105A5000194693858BD14E85EF3010626DF55286D5
:105A6000A28513856900EF30306171FDD699838777
:105A70007900F1FB032A4900630D0A0E02C002C23D
:105A800002C402C602C802CA02CC02CE8A890A8EA9
:105A900022870149014613080002A548A14F930E31
:105AA0002002130FC00539A0637C960E2300070067
:105AB0000507050683070700E38807FFE38617FF4E
:105AC000630DF9036374960A638BD7032320EE00FA
:105AD000130519003383C4403A93BA878507B38608
